:020000040800F2
:10000000481F0020990100081D0C000889070008FE
:10001000190C0008F90200087B1400080000000019
:1000200000000000000000000000000001010008C6
:10003000D90500080000000045010008390F00083C
:10004000B3010008B3010008B3010008B3010008C0
:10005000B3010008B3010008B3010008B3010008B0
:10006000B3010008B3010008B3010008B3010008A0
:10007000B3010008B3010008B3010008B301000890
:10008000B3010008FD020008B3010008B301000835
:10009000B3010008B3010008B3010008B301000870
:1000A000B3010008B3010008B3010008B301000860
:1000B000B3010008B301000800000000B30100080C
:1000C000B30100080000000000000000B3010008B8
:1000D00000000000B3010008A910000800000000A3
:1000E000B3010008B3010008B3010008DFF80CD029
:1000F00000F09EF8004800475D160008481F0020E9
:10010000224B19680868B0E8F00F80F30988BFF344
:100110006F8F4FF0000080F311884EF00D0E704786
:100120000000000006480068006880F3088862B696
:1001300061B6BFF34F8FBFF36F8F00DF00BF00BF0B
:1001400008ED00E0EFF30980BFF36F8F0F4B1A68E3
:1001500020E9F00F106008B54FF0BF0080F3118860
:10016000BFF34F8FBFF36F8F01F0A2FE4FF000007F
:1001700080F31188BDE8084019680868B0E8F00FFE
:1001800080F30988BFF36F8F704700BF1000002015
:10019000EFF3058070470000064880470648004797
:1001A000FEE7FEE7FEE7FEE7FEE7FEE7FEE7FEE727
:1001B000FEE7FEE7490F0008ED00000840EA0103F2
:1001C0009B0703D009E008C9121F08C0042AFAD20D
:1001D00003E011F8013B00F8013B521EF9D27047D1
:1001E000D2B201E000F8012B491EFBD27047002279
:1001F000F6E710B513460A4604461946FFF7F0FF26
:10020000204610BD30B50B460146002020220124B7
:1002100009E021FA02F59D4205D303FA02F5491BD4
:1002200004FA02F52844151EA2F10102F1DC30BDEA
:10023000064C074D06E0E06840F0010394E8070033
:1002400098471034AC42F6D3FFF754FFEC22000875
:100250000C23000808B50121082000F053FD0121FE
:10026000084600F04FFD0121194800F041FA08202E
:10027000ADF8000010208DF8030003208DF8020077
:100280006946144800F0A9F90821124800F078FAEC
:100290002020ADF8000010208DF8030003208DF819
:1002A000020069460B4800F098F92021094800F047
:1002B00069FA4FF48070ADF8000004208DF8030057
:1002C00003208DF802006946024800F086F908BD57
:1002D00000023000000C014010B50821014800F078
:1002E0004FFA10BD000C014010B50821014800F084
:1002F00049FA10BD000C014000BFFEE710B54FF0F9
:10030000007000F0EBF888B14FF0007000F022F8B8
:100310000021074800F02CF800200549091D08605D
:10032000012240F22661034801F011F810BD0000DF
:10033000800002400044004000F0805111B10349A8
:10034000086001E002494860704700000404024070
:100350000000024000F0805111B10349086001E043
:100360000249486070470000040402400000024057
:1003700021B1026842F00102026004E002684FF617
:10038000FE731A400260704701684FF6FE7211401A
:1003900001600021016041608160C1604B49884279
:1003A00008D14A490839496841F00F01474A083ADB
:1003B00051608AE045491431884208D143490839DF
:1003C000496841F0F001414A083A51607DE03F49F7
:1003D0002831884208D13D490839496841F47061A3
:1003E0003A4A083A516070E038493C31884208D1B5
:1003F00036490839496841F47041344A083A516035
:1004000063E032495031884208D13049083949689F
:1004100041F470212D4A083A516056E02B4964316D
:10042000884208D129490839496841F47001274AAE
:10043000083A516049E025497831884208D123497A
:100440000839496841F07061204A083A51603CE03F
:100450001F49884206D1011F096841F00F01021FA0
:10046000116032E01A491431884208D11849091F35
:10047000096841F0F001164A121F116025E0144985
:100480002831884208D11249091F096841F4706176
:100490000F4A121F116018E00D493C31884208D103
:1004A0000B49091F096841F47041094A121F116084
:1004B0000BE007495031884207D10549091F0968F7
:1004C00041F47021024A121F116070470800024077
:1004D000080402400146486880B270470146002087
:1004E000002201F0805313B1054B1A6801E0054B5F
:1004F0001A6802EA01030BB1012000E000207047F6
:1005000000040240000002401AB103680B4303607C
:1005100002E003688B430360704710B50022026855
:1005200047F6F0739A430C6A8B6823430C692343A4
:100530004C6923438C692343CC6923434C6A23438E
:100540008C6A23431A430260CB6843600B68836064
:100550004B68C36010BD41607047000070B5044631
:100560000D4600211848FFF703FF4FF400411748DC
:1005700000F008F94FF00070FFF7DEFE4FF08060EA
:10058000FFF7DAFE4FF00060FFF7D6FE402110487B
:1005900000F0C6FD2A4621460E48FFF70FFE294609
:1005A0000948FFF7D8FF01210748FFF7E1FE00BF28
:1005B0004021074800F094FE0028F9D04FF4004194
:1005C000024800F0DDF870BD80000240000C0140E0
:1005D00000440040B801002070472DE9F041024678
:1005E00000250026002000230024002791F803C0E6
:1005F0000CF00F0591F803C00CF0100CBCF1000FCB
:1006000003D091F802C04CEA050591F800C0BCF196
:10061000000F31D0146800202BE04FF0010C0CFAD1
:1006200000F3B1F800C00CEA03069E4220D183001B
:100630004FF00F0C0CFA03F7BC4305FA03FC4CEA2D
:10064000040491F803C0BCF1280F06D14FF0010C4F
:100650000CFA00FCC2F814C00AE091F803C0BCF127
:10066000480F05D14FF0010C0CFA00FCC2F810C085
:10067000401C0828D1D31460B1F800C0BCF1FF0FB2
:1006800034DD546800202EE000F1080C4FF0010822
:1006900008FA0CF3B1F800C00CEA03069E4221D11F
:1006A00083004FF00F0C0CFA03F7BC4305FA03FC70
:1006B0004CEA040491F803C0BCF1280F05D100F105
:1006C000080C08FA0CF8C2F8148091F803C0BCF1C9
:1006D000480F07D100F1080C4FF0010808FA0CF898
:1006E000C2F81080401C0828CED35460BDE8F081C9
:1006F000F0B50A46002300240021002500F0004642
:10070000B6F1004F02D11D4EF16901E01B4E716838
:10071000C0F3034583B200F44016B6F5401F08D17C
:1007200021F07061154E766826F07066134F7E607A
:1007300012E000F48016B6F5801F06D1032606FAF3
:1007400005F4A14341F0706106E0460D360103FA5D
:1007500006F6B14341F0706122B1460D360103FA4D
:1007600006F6314300F00046B6F1004F02D1034EC9
:10077000F16101E0014E7160F0BD00000000014038
:10078000416170470161704700BFFEE770B50446E4
:1007900042F2107521460B4800F0A4F80CB900F0A5
:1007A0007FF804E0681E051E01D1FF2070BD0649D8
:1007B000044800F0A3F80028F4D0024800F06AF9D9
:1007C000F4E7000000540040400003002DE9F04130
:1007D00007460E4614461D460021384600F024F810
:1007E00010B90020BDE8F081304600F061F808B98A
:1007F0000020F7E70121384600F016F808B900207C
:10080000F0E709E015B14FF4806100E00021C8B2C3
:10081000FFF7BCFF04F8010B281EA5F10101CDB2C2
:10082000F0D10120DEE7000070B506460C4642F22A
:1008300010750121174800F09FF803E0681E051E9F
:1008400000D170BD1449134800F058F80028F5D0C5
:10085000224631460F4800F021F942F210755CB98A
:1008600003E0681E051E00D1EBE70C49094800F0C3
:1008700045F80028F5D00BE003E0681E051E00D106
:10088000DFE70549491C034800F038F80028F4D098
:100890000120D6E700540040010003008200070059
:1008A00010B50121014800F073F810BD005400405C
:1008B00070B5044642F210752146084800F0F7F87A
:1008C00003E0681E051E00D170BD0549034800F015
:1008D00015F80028F5D00120F6E70000005400408C
:1008E0008400070021B1028842F48062028004E0A3
:1008F00002884FF6FF331A400280704770B50246F7
:100900000024002500230020958A138B1B0445EA50
:10091000030626F07F4404EA01068E4201D101203D
:1009200000E0002070BD21B1028842F00102028087
:1009300004E002884FF6FE731A4002807047000000
:1009400010B504460B48844209D10121480500F046
:10095000C9F900214FF4001000F0C4F908E00121AA
:10096000880500F0BFF900214FF4800000F0BAF9CB
:1009700010BD00000054004021B1028842F4807292
:10098000028004E002884FF6FF631A40028070473D
:1009900021B1028842F40072028004E002884FF61E
:1009A000FF531A40028070472DE9F04385B004469A
:1009B0000D460026B1460427DFF8CC80A6884FF606
:1009C000C0700640684600F0BDF9DDF808802F4889
:1009D000B8FBF0F01FFA80F946EA0906A6802088E5
:1009E0004FF6FE7108402080002629492868884279
:1009F0000CD828684000B8FBF0F087B2042F00DA6A
:100A000004273E4309F10100208427E0E8884BF6E3
:100A1000FF71884206D1286800EB4000B8FBF0F077
:100A200087B209E0286800EBC00101EB0010B8FBB9
:100A3000F0F087B247F48047C7F30B0008B947F0DE
:100A4000010747F4004006434FF4967009FB00F09D
:100A50004FF47A7190FBF1F0401C2084A68320882B
:100A600040F00100208026884FF6F5300640A88827
:100A70006989084306432680A8892989084320817B
:100A800005B0BDE8F083000000127A0040420F007C
:100A9000A08601000146088AC0B2704712B141F039
:100AA000010102E04FF6FE73194001827047018296
:100AB000704700000EB54FF4407000F0E9F84FF4B5
:100AC000E13000F071FA00F059FB00F039F8FFF75F
:100AD000C1FBFFF701FC4FF47A7001F027F9FFF733
:100AE00003FC082400250CA000F0CAFC0A236A4677
:100AF00029462046FFF76AFE0646314609A000F067
:100B0000BFFC4FF4FA7001F011F903E04FF4FA70F2
:100B100001F00CF9FAE7000068656C6C6F20776FE4
:100B2000726C6400493243315F526561644275669C
:100B300066657220526573756C74203D20256400D3
:100B400000B585B00121082000F0DCF8C020ADF828
:100B500010001C208DF8130003208DF8120004A94A
:100B60001348FFF73AFD0121480500F0ABF81148A2
:100B7000FFF7E6FE0020ADF804004BF6FF70ADF87D
:100B800006000D4800900020ADF808004FF480608A
:100B9000ADF80A000001ADF80C0069460548FFF702
:100BA00003FF01210348FFF7BEFE05B000BD0000B2
:100BB000000C014000540040A086010008B501214E
:100BC000082000F09FF810208DF803008002ADF897
:100BD000000003208DF8020069460E48FFF7FDFC77
:100BE0004FF480410B48FFF7CDFD11E04FF48041F9
:100BF0000848FFF7C5FD4FF4FA7001F097F84FF47D
:100C000080410448FFF7BEFD4FF4FA7001F08EF802
:100C1000ECE70000000C014000BFFEE77047000059
:100C200070B5002100230F22C47804B3154C24684A
:100C300004F4E064C4F5E064210AC1F10403CA408D
:100C4000447804FA03F184781440214309010E4CDE
:100C50000678A155047804F01F050124AC400578FE
:100C60006D11AD0005F1E025C5F8004109E00478FB
:100C700004F01F050124AC40044D0678761145F8B8
:100C8000264070BD0CED00E000E400E080E100E0F3
:100C900002490143024A1160704700000000FA0552
:100CA0000CED00E029B1064A52690243044B5A6137
:100CB00004E0034A52698243014B5A6170470000C5
:100CC0000010024029B1064AD2690243044BDA619E
:100CD00004E0034AD2698243014BDA6170470000A5
:100CE0000010024029B1064A12690243044B1A61FE
:100CF00004E0034A12698243014B1A617047000005
:100D00000010024029B1064A92690243044B9A61DD
:100D100004E0034A92698243014B9A6170470000E4
:100D20000010024029B1064AD2680243044BDA603F
:100D300004E0034AD2688243014BDA607047000046
:100D40000010024030B500210022002400232D4D68
:100D50006D6805F00C0121B1042905D0082923D1C3
:100D600005E0294D056022E0274D05601FE0254D77
:100D70006D6805F47012234D6D6805F4803402250A
:100D800005EB92421CB9214D554305600BE01D4D0A
:100D90006D6805F400351DB11C4D5543056002E03A
:100DA000194D5543056002E0174D056000BF00BFB7
:100DB000144D6D6805F0F0010909154D6B5C05686F
:100DC000DD4045600F4D6D6805F4E061090A104D86
:100DD0006B5C4568DD4085600A4D6D6805F46051C7
:100DE000C90A0B4D6B5C4568DD40C560054D6D68FB
:100DF00005F44041890B074D6B5CC568B5FBF3F505
:100E0000056130BD0010024000127A0000093D006B
:100E1000520000206200002008B501210820FFF7E1
:100E200071FF4FF40040ADF8000010208DF8030072
:100E300003208DF8020069460448FFF7CEFB4FF40B
:100E400000410248FFF79CFC08BD0000000C014077
:100E500010B500F001F810BD0CB500200190009015
:100E60003348006840F480303149086000BF3048A2
:100E7000006800F4003000900198401C0190009838
:100E800018B90198B0F5A06FF1D12948006800F4B5
:100E9000003010B10120009001E000200090009887
:100EA000012843D12348006840F010002149086020
:100EB0000846006820F0030008600846006840F01B
:100EC000020008601A4840681949486008464068AE
:100ED00048600846406840F48060486008464068C2
:100EE00020F47C1048600846406840F4E8104860F0
:100EF0000846006840F08070086000BF0C48006839
:100F000000F000700028F9D00948406820F0030084
:100F1000074948600846406840F00200486000BF4A
:100F20000348406800F00C000828F9D10CBD00000F
:100F3000001002400020024010B501F051F80128D5
:100F400001D000F0FFFF10BD10B51348006840F05D
:100F500001001149086008464068104908400E49E0
:100F60004860084600680E4908400B49086008467A
:100F7000006820F4802008600846406820F4FE00E5
:100F800048604FF41F008860FFF762FF4FF0006079
:100F90000449086010BD0000001002400000FFF886
:100FA000FFFFF6FE08ED00E010B586B00446012113
:100FB0000420FFF7A7FE01214804FFF783FE042069
:100FC000ADF8140003208DF8160018208DF81700D6
:100FD00005A93348FFF701FB0820ADF814000420F1
:100FE0008DF8170005A92E48FFF7F7FA2D4800F0F5
:100FF00029F926208DF8000005208DF80100002039
:101000008DF8020001208DF803006846FFF708FE06
:1010100010208DF8000006208DF8010000208DF8CA
:10102000020001208DF803006846FFF7F9FD11204A
:101030008DF8000007208DF8010000208DF80200D7
:1010400001208DF803006846FFF7EAFD01940020B7
:10105000ADF80800ADF80A00ADF80C00ADF81000CE
:101060000C20ADF80E0001A90E4800F095F9012200
:1010700040F224410B4800F06AF90122402109485E
:1010800000F072F801228021064800F06DF801217D
:10109000044800F05DF8FFF7BFFE06B010BD000089
:1010A000000801400044004010B540F224411848B7
:1010B00000F023F9F8B100211648FFF759F9154857
:1010C000FFF708FAC0F16400134908800846018858
:1010D0001248FFF743FA64210E48FFF73CFA01215A
:1010E0000C48FFF745F90A4800F0C2F940F22441E4
:1010F000074800F01EF840F22771054800F0F0F8AC
:1011000028B9002240F22661014800F020F910BD04
:10111000004400406C0002405000002054010020B8
:1011200001F40072B2F5007F00D100BFCA43028013
:10113000704710B50022002340F66A14A14200D186
:1011400000BF0A1201249440A3B2DC43048010BD06
:1011500021B1828942F40052828104E082894DF6F5
:10116000FF731A40828170471AB1838A0B438382CE
:1011700002E0838A8B4383827047000000B58BB006
:1011800001210846FFF78EFD2A48FFF7FDF82A489F
:1011900000902A48019000200290642003900020D3
:1011A00004908020059000200690079008904FF44E
:1011B0000050099000200A9069461E48FFF7ADF9DB
:1011C0001C481430FFF7E0F81B4800901C480190C1
:1011D00010200290002003900490802005900020B1
:1011E0000690079008904FF44050099000200A9014
:1011F000694610481430FFF790F9012202210D488A
:10120000FFF782F9012202210A481430FFF77CF926
:10121000012240210848001FFFF7A6FF012280217C
:101220000548001FFFF7A0FF01210248FFF7A0F8C3
:101230000BB000BD6C00024004440040540100208B
:10124000B801002010B504462048844209D101218C
:101250008803FFF767FD00214FF48040FFF762FD30
:1012600032E01B48844209D101214804FFF73AFDCE
:1012700000214FF40030FFF735FD25E0154884428A
:1012800009D101218804FFF72DFD00214FF48020B2
:10129000FFF728FD18E01048844209D10121C80455
:1012A000FFF720FD00214FF40020FFF71BFD0BE0AE
:1012B0000A48844208D101210805FFF713FD0021E7
:1012C0004FF48010FFF70EFD10BD00000038014004
:1012D0000044004000480040004C004000500040E6
:1012E00002460020B1F5007F00D100BF13880B40FB
:1012F0000BB1012000E00020704770B502460024C9
:1013000000230025002040F66A16B14200D100BF3C
:10131000C1F3421501F01F03012606FA03F3012D64
:1013200002D19689334006E0022D02D1168A33405D
:1013300001E0968A33400C12012606FA04F416885E
:10134000344013B10CB1012000E0002070BDF0B5B5
:101350000346002400260025002040F66A17B94203
:1013600000D100BF1846C1F3421401F01F06012747
:1013700007FA06F5012C01D10C3004E0022C01D152
:10138000103000E014301AB107682F43076002E004
:101390000768AF430760F0BD2DE9F04786B005460A
:1013A0000E460024A24600BFA1460027B08900B126
:1013B00000BF2F462C8A4CF6FF700440F08804438F
:1013C0002C82AC894EF6F3100440B0883189084372
:1013D000718908430443AC81AC8A4FF6FF40044056
:1013E000B0890443AC8201A8FFF7ACFC1F488742D8
:1013F00002D1DDF810A001E0DDF80CA0A88900F40E
:10140000004040B10AEBCA0000EB0A103168490005
:10141000B0FBF1F807E00AEBCA0000EB0A103168F4
:101420008900B0FBF1F86420B8FBF0F0040120095A
:10143000642101FB1089A88900F4004040B13220EA
:1014400000EBC900B0FBF1F000F00700044308E036
:10145000322000EB09106421B0FBF1F000F00F0026
:1014600004432C8106B0BDE8F0870000003801403D
:1014700001468888C0F30800704700BFFEE70000FF
:101480000FB4054B10B503A9044A029800F018F8F0
:1014900010BC5DF814FB0000151600088800002041
:1014A00002E008C8121F08C1002AFAD1704770472D
:1014B000002001E001C1121F002AFBD1704700008B
:1014C0002DE9FF4F89B09B460446002506E02528FC
:1014D0000BD05A460B999047641C6D1C207800284D
:1014E000F5D10DB02846BDE8F08F0027B84601229F
:1014F000474900E0074314F8013F203B02FA03F09C
:101500000842F7D120782E2819D114F8010F47F09E
:1015100004072A280ED06FF02F022078A0F13001A6
:1015200009290CD808EB880102EB410100EB010806
:10153000641CF2E70A98641C50F8048B0A90207827
:101540000028CED0642808D0692806D075281ED07F
:101550005A460B9990476D1C58E00A994FF00A09BA
:1015600001C90A91002802DA40422D2102E0390522
:1015700004D52B218DF82010012103E0F90704D0B8
:101580002021F7E78A4608AE0DE00021FAE70A9924
:101590004FF00A0901C90A91F7E74946FEF732FE02
:1015A000303106F8011D0028F7D1ADEB060000F13F
:1015B0002009780701D44FF00108C84502DDA8EBE7
:1015C000090000E000208046002706E008A85A46EF
:1015D000C05D0B9990476D1C7F1C5745F6DB04E0FE
:1015E00030205A460B9990476D1CB8F10001A8F1C4
:1015F0000108F5DC05E016F8010B5A460B999047F7
:101600006D1CB9F10001A9F10109F4DC641C65E766
:101610000928010038B504460D46E0B200900121CA
:101620006846FEF79BFF204638BD00001CB5064803
:10163000012100238022CDE9001004A1064800F01A
:101640009BFC00F0F7FB1CBD00000020737461726E
:10165000745F7461736B00009D1B000810B5FFF789
:10166000E5FF002010BD00002DE9F04105460E46C3
:101670002648076826480068001D00F0B9FA50B9EE
:101680002348006890F82C100120884021490968FF
:10169000814320480160681CD8B9D6B11E4948680A
:1016A0001B49096888601A4982680968CA60184934
:1016B0000968091D8268516015490968091D816022
:1016C000154A134909684A6111460968491C1160A5
:1016D0001AE07C190E4800684460BC4207D20C48EE
:1016E0000168091D0D48006800F0A6FA0CE00848E2
:1016F0000168091D0A48006800F09EFA0948006860
:10170000844201D207480460BDE8F0812400002033
:1017100010000020280000204001002018000020B8
:10172000140000204000002010B5044600F0AAFA82
:101730002F480068401C2E4908602E48006840B9B8
:101740002C4804600846006801280DD100F016F905
:101750000AE02948006838B926480068C06AE16A8A
:10176000884201D82348046024480068401C23496B
:10177000086094F82C10012088402149096808432A
:101780001F490860E16A01EB81011E4A02EB8101F9
:101790004868A0608268E260211D826851608160B3
:1017A000E16A01EB8101174A02EB81026261E16AA1
:1017B00001EB8101134A52F82110491CE26A02EB45
:1017C0008202104B43F8221000F06EFA0A480068BB
:1017D00068B108480068C06AE16A884207D24FF0E1
:1017E000805009490860BFF34F8FBFF36F8F10BD62
:1017F00020000020100000202C0000203C000020D1
:10180000280000208C00002004ED00E010B516E058
:1018100000F038FA0C48C068C468201D00F0E8F9F0
:101820000A480068401E0949086009480068401ECF
:101830000749086000F038FA204600F00BF8044829
:1018400000680028E4D110BD2C01002020000020F9
:101850001C00002010B50446206B00F035FA20462D
:1018600000F032FA10BD000030B54FF4C0531548F7
:1018700000F007042CB1C01D20F00700114C041B20
:101880001B1B0246104C226000240F4D6C60D018C8
:10189000083820F007000D4C206000240B4D2D6807
:1018A0006C600A4D2D682C601146441A4C60074C40
:1018B00024680C60064D4C682C60064D4C682C600A
:1018C00030BD0000480300206C00002074000020A0
:1018D0007C0000207800002000BFFFF797FF06483B
:1018E00000680128F9D94FF0805004490860BFF31F
:1018F0004F8FBFF36F8FF0E78C00002004ED00E006
:101900002DE9FF5F80460E469146DDE90E7A109C78
:10191000A9F10100216B01EB800B2BF0070B7EB1CD
:10192000002507E0715D04F134004155705D00B998
:1019300002E06D1C102DF5D300BF0021432001559E
:10194000052F00D30427E762201D00F072F904F18F
:10195000180000F06EF92461C7F10500A06164620F
:1019600041465846039A00F007F92060BAF1000F8B
:1019700001D0CAF80040BDE8FF9F000010B5002468
:1019800007E004EB84010F4A02EB810000F044F908
:10199000641C052CF5D30C4800F03EF90B4800F010
:1019A0003BF90B4800F038F90A4800F035F90A48CD
:1019B00000F032F904480949086004480849086001
:1019C00010BD00008C000020F00000200401002069
:1019D000180100202C0100204001002014000020EC
:1019E0001800002010B50146164800E000680368A2
:1019F0008B42FBD30246436813448B4204D14368B5
:101A00004C682344436001460A464B68134404680B
:101A1000A34211D10C4C03682468A34208D04B6840
:101A20000468646823444B6003681B680B6005E02E
:101A3000054B1B680B6001E003680B60884200D017
:101A4000016010BD6C00002074000020094800688F
:101A5000006808B9012000E0002020B14FF0FF30FD
:101A60000549086005E003480068C068006802494D
:101A700008607047140000204000002000BFBF2015
:101A800080F31188BFF34F8FBFF36F8F00BF00BF8C
:101A9000FEE700002DE9F04705464FF0000900F091
:101AA000FFF93048006808B9FFF7DEFE75B105F0B0
:101AB0000700C0F11008C8F1FF30A84201D2012090
:101AC00000E0002008B9454400E00025012000EBBB
:101AD000E570002841D0002D3FD0234800688542A2
:101AE0003BD8224E3046046801E0264624686068F0
:101AF000A84202D220680028F7D11A480068844220
:101B00002BD0306800F10809206830606068401B05
:101B1000102807D967196068401B786065603846EF
:101B2000FFF760FF104960680968081A0E490860ED
:101B3000084600680E490968884203D20A480068CE
:101B40000B490860606840F0004060600020206041
:101B500008480068401C0749086000F019FB484627
:101B6000BDE8F08774000020780000206C000020A1
:101B70007C00002080000020001F4FF08073036075
:101B8000001F21F001030360001F034B03601438A2
:101B900002602038704700007D1A00081CB504461A
:101BA0000B48012100238022CDE9001009A10A4839
:101BB00000F0E2F90948012100238022CDE900105C
:101BC00007A10A4800F0D8F9002000F0C9F81CBDB0
:101BD000040000204C454400BD0B00080C00002010
:101BE0004932435F5461736B00000000B50A00087E
:101BF00001460A69D1E901309860D1E901035860D2
:101C00005068884201D188685060002008611068DF
:101C1000401E10601068704700F1080141604FF0ED
:101C2000FF31816000F10801C160016100210160A4
:101C3000704700210161704710B502460B685C1CBB
:101C40000CB9106907E002F1080000E04068446840
:101C500024689C42FAD944684C604C68A160886052
:101C600041600A611468641C146010BD42684A60D7
:101C700093688B60936859609160086103685B1C8E
:101C80000360704700BFBF2080F31188BFF34F8F00
:101C9000BFF36F8F00BF03480068401C0149086014
:101CA000704700006800002006480068401E054993
:101CB00008600846006820B9002080F3118800BF42
:101CC00000BF70476800002070B506463546E6B193
:101CD000083D2C466068C00FB8B12068A8B960689C
:101CE00020F00040606000F0DBF808496068096897
:101CF0000844064908602046FFF774FE044800685F
:101D0000401C0349086000F043FA70BD78000020D1
:101D10008400002000204FF0E02108618861024823
:101D200048610720086170473F19010070B50446FB
:101D3000002544B100F0B4F800212046FFF794FCE0
:101D400000F026FA05463DB94FF08050034908607F
:101D5000BFF34F8FBFF36F8F70BD000004ED00E045
:101D600070B50546FFF78EFF15B92948006800E0F9
:101D700028460446201DFFF73BFF78B9E06A00EBD8
:101D80008000244951F8200040B994F82C1001201B
:101D900088402149096881431F480160A06A18B141
:101DA00004F11800FFF724FF1C480068401C1B4981
:101DB000086017480068844209D1211D1848FFF7C0
:101DC00055FF18480068401C1649086006E0164890
:101DD0000068401E14490860FFF738FEFFF764FFF3
:101DE0000B480068844202D02046FFF733FD0F48BD
:101DF000006858B106480068844207D14FF080500F
:101E00000B490860BFF34F8FBFF36F8F70BD0000A9
:101E1000100000208C000020280000203C00002042
:101E20002C0100201C000020200000202C0000209D
:101E300004ED00E01CB5124800210B468022CDE9DC
:101E4000001010A1114800F097F80446012C14D19D
:101E500000BFBF2080F31188BFF34F8FBFF36F8F98
:101E600000BF4FF0FF300A490860012009490860AF
:101E700000200949086000F04BF8084800681CBDC4
:101E80004400002049444C4500000000D9180008D7
:101E9000400000202C0000202400002048000020EA
:101EA00002480068401C0149086070474C0000204F
:101EB0001248006818B10120114908601DE0002097
:101EC0000F4908600F480068B0FA80F0C0F11F01A8
:101ED00001EB81020C4B03EB8200426852684260C6
:101EE00000F108024368934202D14268526842609E
:101EF0004268D268054B1A6000BF70474C00002052
:101F000034000020280000208C0000201000002059
:101F100010B50A48006840F47F0008490860084688
:101F2000006840F07F400860FFF7F4FE002004499D
:101F30000860FEF7F7F8002010BD000020ED00E07B
:101F40006800002010B500BFBF2080F31188BFF3E8
:101F50004F8FBFF36F8F00BF00F052F818B14FF0F2
:101F600080500449086000BF002080F3118800BF42
:101F700010BD000004ED00E02DE9FF4F85B0804664
:101F800089461746DDE912ABB800FFF783FD064628
:101F900076B14C20FFF77EFD04462CB14C21204643
:101FA000FEF725F9266304E03046FFF78DFE00E0DA
:101FB00000247CB10020CDE900ABCDE902403A46D7
:101FC00049464046089BFFF79BFC2046FFF7ACFBC9
:101FD000012501E04FF0FF35284609B0BDE8F08F3C
:101FE0000549096809B9012005E00449096809B9EA
:101FF000022000E0002070472C0000204C00002050
:102000002DE9F04100275748006800287ED1564846
:102010000068451C544805608DB95448D0F80080CC
:1020200053480068514908605148C0F80080514841
:102030000068401C4F490860FFF708FD00BF4E488C
:102040000068854276D300BF48480068006808B938
:10205000012000E0002020B14FF0FF304649086029
:1020600067E042480068C068C4686668B54202D24A
:10207000414806605DE06069D4E902128A60D4E9F3
:1020800002214A60211D42688A4201D1E168416013
:10209000002262610168491E0160A06A98B1A06ACD
:1020A000D4E907128A60D4E907214A6004F11801D3
:1020B00042688A4201D1216A41600022A26201681D
:1020C000491E016000BF94F82C10012088402B4964
:1020D0000968084329490860E16A01EB8101284A3F
:1020E00002EB81014868A0608268E260211D82687D
:1020F00051608160E16A01EB8101214A02EB8102BA
:102100006261E16A01EB81011D4A00E022E052F8C0
:102110002110491CE26A02EB8202194B43F822109B
:102120001849E06A0968C96A88428DD901278BE796
:1021300000E000BF13480068C06A00EB800010494F
:1021400051F82000012800D901270F48006800B18C
:10215000012704E00D480068401C0C49086038461F
:10216000BDE8F0814C000020240000201400002075
:102170001800002038000020400000202800002027
:102180008C000020100000203400002030000020CF
:1021900070B500240026FFF775FD4B480068401E0F
:1021A000494908600846006800287DD14748006812
:1021B000002879D05BE04648C068C468A06AD4E9CA
:1021C00007128A60D4E907214A6004F118014268C5
:1021D0008A4201D1216A41600022A2620168491E3F
:1021E00001606069D4E902128A60D4E902214A6080
:1021F000211D42688A4201D1E1684160002262618A
:102200000168491E016094F82C1001208840314972
:10221000096808432F490860E16A01EB81012E4AF1
:1022200002EB81014868A0608268E260211D82683B
:1022300051608160E16A01EB8101274A02EB810272
:102240006261E16A01EB8101234A52F82110491CC5
:10225000E26A02EB8202204B43F822101F49E06A37
:102260000968C96A884202D301201D4908601848DC
:10227000006808B9012000E0002000289BD00CB1C4
:10228000FFF7E4FB1748056865B100BFFFF7B8FE2C
:1022900010B10120124908606D1E002DF6D10020FA
:1022A000104908600E4800E009E0006838B10126D6
:1022B00030070D490860BFF34F8FBFF36F8FFFF7F3
:1022C000F3FC304670BD00004C00002020000020D0
:1022D00018010020280000208C00002010000020A1
:1022E000340000203000002004ED00E00C23000842
:1022F000000000208C000000A014000898230008B3
:102300008C000020BC1E0000B0140008000000007B
:1023100000000000000000000000000000000000BD
:1023200000000000000000000000000000000000AD
:10233000000000000000000000000000000000009D
:10234000000000000000000000000000000000008D
:102350000000000004000000000000000000000079
:102360000000010203040102030406070809020435
:1023700006080000AAAAAAAA0000000000000000A7
:10238000000000000000000000000000000000004D
:08239000000000000000000045
:040000050800019955
:00000001FF
